{
  "contractName": "Charity",
  "abi": [
    {
      "anonymous": false,
      "inputs": [
        {
          "indexed": true,
          "internalType": "address",
          "name": "_from",
          "type": "address"
        },
        {
          "indexed": true,
          "internalType": "address",
          "name": "_contract",
          "type": "address"
        },
        {
          "indexed": false,
          "internalType": "uint256",
          "name": "_value",
          "type": "uint256"
        }
      ],
      "name": "Funds_Donated",
      "type": "event"
    },
    {
      "anonymous": false,
      "inputs": [
        {
          "indexed": true,
          "internalType": "address",
          "name": "_from",
          "type": "address"
        },
        {
          "indexed": true,
          "internalType": "address",
          "name": "_contract",
          "type": "address"
        },
        {
          "indexed": false,
          "internalType": "uint256",
          "name": "_value",
          "type": "uint256"
        }
      ],
      "name": "Goal_Reached",
      "type": "event"
    },
    {
      "anonymous": false,
      "inputs": [
        {
          "indexed": true,
          "internalType": "address",
          "name": "_from",
          "type": "address"
        },
        {
          "indexed": true,
          "internalType": "address",
          "name": "_project",
          "type": "address"
        },
        {
          "indexed": false,
          "internalType": "string",
          "name": "_desription",
          "type": "string"
        }
      ],
      "name": "Project_Created",
      "type": "event"
    },
    {
      "anonymous": false,
      "inputs": [
        {
          "indexed": true,
          "internalType": "address",
          "name": "_from",
          "type": "address"
        },
        {
          "indexed": true,
          "internalType": "address",
          "name": "_contract",
          "type": "address"
        },
        {
          "indexed": false,
          "internalType": "uint256",
          "name": "_value",
          "type": "uint256"
        }
      ],
      "name": "Project_Ended",
      "type": "event"
    },
    {
      "inputs": [
        {
          "internalType": "uint256",
          "name": "",
          "type": "uint256"
        }
      ],
      "name": "allDonors",
      "outputs": [
        {
          "internalType": "address",
          "name": "donorAddress",
          "type": "address"
        },
        {
          "internalType": "uint256",
          "name": "amount",
          "type": "uint256"
        },
        {
          "internalType": "uint256",
          "name": "projectID",
          "type": "uint256"
        }
      ],
      "stateMutability": "view",
      "type": "function",
      "constant": true
    },
    {
      "inputs": [
        {
          "internalType": "uint256",
          "name": "",
          "type": "uint256"
        }
      ],
      "name": "allProjects",
      "outputs": [
        {
          "internalType": "uint256",
          "name": "id",
          "type": "uint256"
        },
        {
          "internalType": "address",
          "name": "recipient",
          "type": "address"
        },
        {
          "internalType": "string",
          "name": "projectName",
          "type": "string"
        },
        {
          "internalType": "string",
          "name": "description",
          "type": "string"
        },
        {
          "internalType": "uint256",
          "name": "amountNeeded",
          "type": "uint256"
        },
        {
          "internalType": "uint256",
          "name": "amountDonated",
          "type": "uint256"
        },
        {
          "internalType": "string",
          "name": "imageUrl",
          "type": "string"
        },
        {
          "internalType": "bool",
          "name": "ongoing",
          "type": "bool"
        },
        {
          "internalType": "address",
          "name": "projectAddress",
          "type": "address"
        }
      ],
      "stateMutability": "view",
      "type": "function",
      "constant": true
    },
    {
      "inputs": [],
      "name": "nextId",
      "outputs": [
        {
          "internalType": "uint256",
          "name": "",
          "type": "uint256"
        }
      ],
      "stateMutability": "view",
      "type": "function",
      "constant": true
    },
    {
      "inputs": [
        {
          "internalType": "uint256",
          "name": "id",
          "type": "uint256"
        }
      ],
      "name": "donate",
      "outputs": [],
      "stateMutability": "payable",
      "type": "function",
      "payable": true
    },
    {
      "inputs": [
        {
          "internalType": "string",
          "name": "name",
          "type": "string"
        },
        {
          "internalType": "string",
          "name": "description",
          "type": "string"
        },
        {
          "internalType": "uint256",
          "name": "amountNeeded",
          "type": "uint256"
        },
        {
          "internalType": "string",
          "name": "imageUrl",
          "type": "string"
        }
      ],
      "name": "createProjectStruct",
      "outputs": [],
      "stateMutability": "nonpayable",
      "type": "function"
    },
    {
      "inputs": [],
      "name": "getAllProjects",
      "outputs": [
        {
          "components": [
            {
              "internalType": "uint256",
              "name": "id",
              "type": "uint256"
            },
            {
              "internalType": "address",
              "name": "recipient",
              "type": "address"
            },
            {
              "internalType": "string",
              "name": "projectName",
              "type": "string"
            },
            {
              "internalType": "string",
              "name": "description",
              "type": "string"
            },
            {
              "internalType": "uint256",
              "name": "amountNeeded",
              "type": "uint256"
            },
            {
              "internalType": "uint256",
              "name": "amountDonated",
              "type": "uint256"
            },
            {
              "internalType": "string",
              "name": "imageUrl",
              "type": "string"
            },
            {
              "internalType": "bool",
              "name": "ongoing",
              "type": "bool"
            },
            {
              "internalType": "address",
              "name": "projectAddress",
              "type": "address"
            }
          ],
          "internalType": "struct Charity.Project[]",
          "name": "",
          "type": "tuple[]"
        }
      ],
      "stateMutability": "view",
      "type": "function",
      "constant": true
    },
    {
      "inputs": [],
      "name": "getAllProjectsLength",
      "outputs": [
        {
          "internalType": "uint256",
          "name": "",
          "type": "uint256"
        }
      ],
      "stateMutability": "view",
      "type": "function",
      "constant": true
    },
    {
      "inputs": [
        {
          "internalType": "uint256",
          "name": "id",
          "type": "uint256"
        }
      ],
      "name": "readSingleProject",
      "outputs": [
        {
          "internalType": "uint256",
          "name": "",
          "type": "uint256"
        },
        {
          "internalType": "address",
          "name": "",
          "type": "address"
        },
        {
          "internalType": "string",
          "name": "",
          "type": "string"
        },
        {
          "internalType": "string",
          "name": "",
          "type": "string"
        },
        {
          "internalType": "uint256",
          "name": "",
          "type": "uint256"
        },
        {
          "internalType": "uint256",
          "name": "",
          "type": "uint256"
        },
        {
          "internalType": "bool",
          "name": "",
          "type": "bool"
        },
        {
          "internalType": "string",
          "name": "",
          "type": "string"
        },
        {
          "internalType": "address",
          "name": "",
          "type": "address"
        }
      ],
      "stateMutability": "view",
      "type": "function",
      "constant": true
    },
    {
      "inputs": [],
      "name": "isCharity",
      "outputs": [
        {
          "internalType": "bool",
          "name": "",
          "type": "bool"
        }
      ],
      "stateMutability": "view",
      "type": "function",
      "constant": true
    }
  ],
  "bytecode": "0x6080604052600160005534801561001557600080fd5b506114ac806100256000396000f3fe6080604052600436106100865760003560e01c806361b8ce8c1161005957806361b8ce8c146101615780636d7932d11461018557806380d03829146101aa578063efd5bf8b146101cc578063f14faf6f146101e157600080fd5b80632c3e69631461008b5780633330d8ca146100d5578063467706211461010a57806353b3194c1461012c575b600080fd5b34801561009757600080fd5b506100ab6100a636600461101e565b6101f4565b604080516001600160a01b0390941684526020840192909252908201526060015b60405180910390f35b3480156100e157600080fd5b506100f56100f036600461101e565b610231565b6040516100cc99989796959493929190611084565b34801561011657600080fd5b5061012a6101253660046111aa565b61058d565b005b34801561013857600080fd5b5061014c61014736600461101e565b610775565b6040516100cc9998979695949392919061123c565b34801561016d57600080fd5b5061017760005481565b6040519081526020016100cc565b34801561019157600080fd5b5061019a610980565b60405190151581526020016100cc565b3480156101b657600080fd5b506101bf6109f0565b6040516100cc91906112bf565b3480156101d857600080fd5b50600254610177565b61012a6101ef36600461101e565b610c68565b6001818154811061020457600080fd5b60009182526020909120600390910201805460018201546002909201546001600160a01b03909116925083565b6000806060806000806000606060008061024a8b610eea565b90506002818154811061025f5761025f6113c2565b90600052602060002090600802016000015460028281548110610284576102846113c2565b906000526020600020906008020160010160009054906101000a90046001600160a01b0316600283815481106102bc576102bc6113c2565b9060005260206000209060080201600201600284815481106102e0576102e06113c2565b906000526020600020906008020160030160028581548110610304576103046113c2565b90600052602060002090600802016004015460028681548110610329576103296113c2565b9060005260206000209060080201600501546002878154811061034e5761034e6113c2565b906000526020600020906008020160070160009054906101000a900460ff1660028881548110610380576103806113c2565b9060005260206000209060080201600601600289815481106103a4576103a46113c2565b906000526020600020906008020160070160019054906101000a90046001600160a01b03168680546103d5906113d8565b80601f0160208091040260200160405190810160405280929190818152602001828054610401906113d8565b801561044e5780601f106104235761010080835404028352916020019161044e565b820191906000526020600020905b81548152906001019060200180831161043157829003601f168201915b50505050509650858054610461906113d8565b80601f016020809104026020016040519081016040528092919081815260200182805461048d906113d8565b80156104da5780601f106104af576101008083540402835291602001916104da565b820191906000526020600020905b8154815290600101906020018083116104bd57829003601f168201915b505050505095508180546104ed906113d8565b80601f0160208091040260200160405190810160405280929190818152602001828054610519906113d8565b80156105665780601f1061053b57610100808354040283529160200191610566565b820191906000526020600020905b81548152906001019060200180831161054957829003601f168201915b50505050509150995099509950995099509950995099509950509193959799909294969850565b6040805161012081018252600080548252336020808401918252938301888152606084018890526080840187905260a0840183905260c08401869052600160e0850181905230610100860152600280549182018155909352835160089093027f405787fa12a823e0f2b7631cc41b3ba8828b3321ca811111fa75cd3aa3bb5ace810193845591517f405787fa12a823e0f2b7631cc41b3ba8828b3321ca811111fa75cd3aa3bb5acf830180546001600160a01b03929092166001600160a01b03199092169190911790555180519394859461068e937f405787fa12a823e0f2b7631cc41b3ba8828b3321ca811111fa75cd3aa3bb5ad0019290910190610f85565b50606082015180516106aa916003840191602090910190610f85565b506080820151600482015560a0820151600582015560c082015180516106da916006840191602090910190610f85565b5060e082015160079091018054610100938401516001600160a01b0316909302610100600160a81b0319921515929092166001600160a81b03199093169290921717905560008054908061072d83611429565b9091555050604051309033907fb3baea71d4ddbfbb72a19472613826fbe33d620e97614dae28fd277f229fedd890610766908890611444565b60405180910390a35050505050565b6002818154811061078557600080fd5b60009182526020909120600890910201805460018201546002830180549294506001600160a01b0390911692916107bb906113d8565b80601f01602080910402602001604051908101604052809291908181526020018280546107e7906113d8565b80156108345780601f1061080957610100808354040283529160200191610834565b820191906000526020600020905b81548152906001019060200180831161081757829003601f168201915b505050505090806003018054610849906113d8565b80601f0160208091040260200160405190810160405280929190818152602001828054610875906113d8565b80156108c25780601f10610897576101008083540402835291602001916108c2565b820191906000526020600020905b8154815290600101906020018083116108a557829003601f168201915b5050505050908060040154908060050154908060060180546108e3906113d8565b80601f016020809104026020016040519081016040528092919081815260200182805461090f906113d8565b801561095c5780601f106109315761010080835404028352916020019161095c565b820191906000526020600020905b81548152906001019060200180831161093f57829003601f168201915b5050506007909301549192505060ff8116906001600160a01b036101009091041689565b6000805b6002548110156109e857336001600160a01b0316600282815481106109ab576109ab6113c2565b60009182526020909120600160089092020101546001600160a01b031614156109d657600191505090565b806109e081611429565b915050610984565b506000905090565b60606002805480602002602001604051908101604052809291908181526020016000905b82821015610c5f5760008481526020908190206040805161012081018252600886029092018054835260018101546001600160a01b03169383019390935260028301805492939291840191610a68906113d8565b80601f0160208091040260200160405190810160405280929190818152602001828054610a94906113d8565b8015610ae15780601f10610ab657610100808354040283529160200191610ae1565b820191906000526020600020905b815481529060010190602001808311610ac457829003601f168201915b50505050508152602001600382018054610afa906113d8565b80601f0160208091040260200160405190810160405280929190818152602001828054610b26906113d8565b8015610b735780601f10610b4857610100808354040283529160200191610b73565b820191906000526020600020905b815481529060010190602001808311610b5657829003601f168201915b505050505081526020016004820154815260200160058201548152602001600682018054610ba0906113d8565b80601f0160208091040260200160405190810160405280929190818152602001828054610bcc906113d8565b8015610c195780601f10610bee57610100808354040283529160200191610c19565b820191906000526020600020905b815481529060010190602001808311610bfc57829003601f168201915b50505091835250506007919091015460ff811615156020808401919091526101009091046001600160a01b03166040909201919091529082526001929092019101610a14565b50505050905090565b60003411610cbd5760405162461bcd60e51b815260206004820181905260248201527f506c6561736520646f6e6f7465206d6f7265207468656e203020616d6f756e7460448201526064015b60405180910390fd5b6000610cc882610eea565b9050610cd2610980565b15610d105760405162461bcd60e51b815260206004820152600e60248201526d31b0b73737ba103237b730ba329760911b6044820152606401610cb4565b60028181548110610d2357610d236113c2565b90600052602060002090600802016004015460028281548110610d4857610d486113c2565b90600052602060002090600802016005015410610db75760405162461bcd60e51b815260206004820152602760248201527f7468652070726f6a65637420616c72656164792072616973656420656e6f756760448201526668206d6f6e657960c81b6064820152608401610cb4565b60408051606081018252338152346020820190815291810184815260018054808201825560009190915291517fb10e2d527612073b26eecdfd717e6a320cf44b4afac2b0732d9fcbe2b7fa0cf6600390930292830180546001600160a01b0319166001600160a01b0390921691909117905591517fb10e2d527612073b26eecdfd717e6a320cf44b4afac2b0732d9fcbe2b7fa0cf782015590517fb10e2d527612073b26eecdfd717e6a320cf44b4afac2b0732d9fcbe2b7fa0cf8909101553460028281548110610e8a57610e8a6113c2565b90600052602060002090600802016005016000828254610eaa919061145e565b9091555050604051348152309033907f702ce8e2a7e3a8bc7ba50d9187386c652637c1e0a97f4c8ad4c2481e1ae0861a9060200160405180910390a35050565b6000805b600254811015610f3c578260028281548110610f0c57610f0c6113c2565b9060005260206000209060080201600001541415610f2a5792915050565b80610f3481611429565b915050610eee565b5060405162461bcd60e51b815260206004820152601760248201527f50726f6a65637420646f6573206e6f74206578697374210000000000000000006044820152606401610cb4565b828054610f91906113d8565b90600052602060002090601f016020900481019282610fb35760008555610ff9565b82601f10610fcc57805160ff1916838001178555610ff9565b82800160010185558215610ff9579182015b82811115610ff9578251825591602001919060010190610fde565b50611005929150611009565b5090565b5b80821115611005576000815560010161100a565b60006020828403121561103057600080fd5b5035919050565b6000815180845260005b8181101561105d57602081850181015186830182015201611041565b8181111561106f576000602083870101525b50601f01601f19169290920160200192915050565b8981526001600160a01b038981166020830152610120604083018190526000916110b08483018c611037565b915083820360608501526110c4828b611037565b91508860808501528760a085015286151560c085015283820360e08501526110ec8287611037565b925080851661010085015250509a9950505050505050505050565b634e487b7160e01b600052604160045260246000fd5b600082601f83011261112e57600080fd5b813567ffffffffffffffff8082111561114957611149611107565b604051601f8301601f19908116603f0116810190828211818310171561117157611171611107565b8160405283815286602085880101111561118a57600080fd5b836020870160208301376000602085830101528094505050505092915050565b600080600080608085870312156111c057600080fd5b843567ffffffffffffffff808211156111d857600080fd5b6111e48883890161111d565b955060208701359150808211156111fa57600080fd5b6112068883890161111d565b945060408701359350606087013591508082111561122357600080fd5b506112308782880161111d565b91505092959194509250565b8981526001600160a01b038981166020830152610120604083018190526000916112688483018c611037565b9150838203606085015261127c828b611037565b91508860808501528760a085015283820360c085015261129c8288611037565b925085151560e085015280851661010085015250509a9950505050505050505050565b60006020808301818452808551808352604092508286019150828160051b87010184880160005b838110156113b457603f19898403018552815180518452878101516001600160a01b031688850152868101516101208886018190529061132882870182611037565b915050606080830151868303828801526113428382611037565b92505050608080830151818701525060a080830151818701525060c080830151868303828801526113738382611037565b9250505060e08083015161138a8288018215159052565b5050610100918201516001600160a01b0316949091019390935293860193908601906001016112e6565b509098975050505050505050565b634e487b7160e01b600052603260045260246000fd5b600181811c908216806113ec57607f821691505b6020821081141561140d57634e487b7160e01b600052602260045260246000fd5b50919050565b634e487b7160e01b600052601160045260246000fd5b600060001982141561143d5761143d611413565b5060010190565b6020815260006114576020830184611037565b9392505050565b6000821982111561147157611471611413565b50019056fea2646970667358221220670bd42653200a1463ef5fdbe9819240c343738c65bf6b5934b9af5d07c6cf8764736f6c63430008090033",
  "immutableReferences": {},
  "source": "// SPDX-License-Identifier: MIT\npragma solidity ^0.8.0;\n\ncontract Charity {\n    struct Project {\n        uint256 id;\n        address recipient;\n        string projectName;\n        string description;\n        uint256 amountNeeded;\n        uint256 amountDonated;\n        string imageUrl;\n        bool ongoing;\n        address projectAddress;\n    }\n    struct Donor {\n        address donorAddress;\n        uint256 amount;\n        uint256 projectID;\n    }\n    uint256 public nextId = 1;\n    Donor[] public allDonors;\n    Project[] public allProjects; //mang project.\n\n    function createDonationStruct(uint256 amount, uint256 id) internal {Donor memory newDonor = Donor(\n        {donorAddress: msg.sender,\n            amount: amount,\n            projectID: id\n        });\n        allDonors.push(newDonor);\n    }\n\n    function donate(uint256 id) public payable {\n        //click donate on project\n        //find project\n        require(msg.value > 0, 'Please donote more then 0 amount');\n        uint256 i = find(id);\n        // require(\n        //     allProjects[i].recipient != msg.sender,\n        //     'Please donate from another wallet'\n        // );\n        require(isCharity() == false, 'cannot donate.');\n        require(allProjects[i].amountDonated < allProjects[i].amountNeeded, 'the project already raised enough money');\n        createDonationStruct(msg.value, id);\n        // this.balance.transfer(msg.value);\n        allProjects[i].amountDonated += msg.value;\n        emit Funds_Donated(msg.sender, address(this), msg.value);\n        // if (allProjects[i].amountDonated >= allProjects[i].amountNeeded) {\n        //     //run function to end the project\n        //     //endProject(allProjects[i].id);\n        //     emit Goal_Reached(\n        //         allProjects[i].recipient,\n        //         address(this),\n        //         allProjects[i].amountDonated\n        //     );\n        // }\n    }\n\n    function createProjectStruct(string memory name,string memory description,uint256 amountNeeded,string memory imageUrl) public {\n        Project memory newProject = Project({\n            id: nextId,\n            recipient: msg.sender,\n            projectName: name,\n            description: description,\n            amountNeeded: amountNeeded,\n            amountDonated: 0,\n            imageUrl: imageUrl,\n            ongoing: true,\n            projectAddress: address(this)\n        });\n        allProjects.push(newProject);\n        nextId++;\n        emit Project_Created(msg.sender, address(this), description);\n    }\n    \n    function getAllProjects() public view returns(Project[] memory){\n        return allProjects;\n    }\n\n    function find(uint256 id) internal view returns (uint256) {\n        for (uint256 i = 0; i < allProjects.length; i++) {\n            if (allProjects[i].id == id) {\n                return i;\n            }\n        }\n        revert('Project does not exist!');\n    }\n\n    function getAllProjectsLength() public view returns (uint256) {\n        return allProjects.length;\n    }\n\n    // function endProject(uint256 id) public payable {\n    //     uint256 i = find(id);\n    //     require(\n    //         allProjects[i].amountDonated >= allProjects[i].amountNeeded,\n    //         'This project has not rasied enough money'\n    //     );\n    //     emit Goal_Reached(\n    //         allProjects[i].recipient,\n    //         address(this),\n    //         allProjects[i].amountDonated\n    //     );\n    //     allProjects[i].ongoing = false;\n    //     emit Project_Ended(\n    //         allProjects[i].recipient,\n    //         address(this),\n    //         allProjects[i].amountDonated\n    //     );\n    //     allProjects[i].recipient.transfer(allProjects[i].amountDonated); // sends the account balance to recipient\n    // }\n\n    //use this to render single project view\n    function readSingleProject(uint256 id)\n        public\n        view\n        returns (\n            uint256,\n            address,\n            string memory,\n            string memory,\n            uint256,\n            uint256,\n            bool,\n            string memory,\n            address\n        )\n    {\n        uint256 i = find(id);\n        return (\n            allProjects[i].id,\n            allProjects[i].recipient,\n            allProjects[i].projectName,\n            allProjects[i].description,\n            allProjects[i].amountNeeded,\n            allProjects[i].amountDonated,\n            allProjects[i].ongoing,\n            allProjects[i].imageUrl,\n            allProjects[i].projectAddress\n        );\n    }\n\n    function isCharity() public view returns (bool) {\n        for (uint256 i = 0; i < allProjects.length; i++) {\n            if (allProjects[i].recipient == msg.sender) {\n                return true;\n            }\n        }\n        return false;\n    }\n    // function () external fall {\n    //     revert('not sure what you are doing');\n    // }\n\n\n\n    //     //EVENTS\n    //event for when a contract is created. Shows owner address, contract address and description of fundraiser\n    event Project_Created(\n        address indexed _from,\n        address indexed _project,\n        string _desription\n    );\n    // event for when money is donated. Shows address of donor, fundraiser contract donated to and value donated\n    event Funds_Donated(\n        address indexed _from,\n        address indexed _contract,\n        uint256 _value\n    );\n    //event for when the fundraising goal is reached. Shows recipient address, contract address and amount raised\n    event Goal_Reached(\n        address indexed _from,\n        address indexed _contract,\n        uint256 _value\n    );\n    //event for when recipient/contract owner ends fundraiser. Shows the owner address, contract address and amount rasied\n    event Project_Ended(\n        address indexed _from,\n        address indexed _contract,\n        uint256 _value\n    );\n}",
  "sourcePath": "/Users/nguyenngocha/Desktop/Charity-Dapp/contracts/Charity.sol",
  "compiler": {
    "name": "solc",
    "version": "0.8.9+commit.e5eed63a.Emscripten.clang"
  },
  "schemaVersion": "3.4.3",
  "updatedAt": "2021-11-09T10:45:39.002Z",
  "networkType": "ethereum",
  "devdoc": {
    "kind": "dev",
    "methods": {},
    "version": 1
  },
  "userdoc": {
    "kind": "user",
    "methods": {},
    "version": 1
  }
}